:1000000001308A0059290000CA3AEC346F10C3321B
:10001000F3307200CA34ED32EE327A10C237EC346B
:100020006F00D634633A6F39A0266137F5326C0021
:10003000D330EE31E8327A10D330EE31E8327A0044
:100040002630840083130008031933280230F80097
:10005000F701F70B2928F80B28289730F700F70B42
:100060002F28800B262808002C0EF039F7000F30BF
:10007000080577048800000008143E283F2808106F
:1000800008000808F700080E0F39F800080083166A
:10009000081088100811831288100F308316080585
:1000A000F038880083120815000008140000412071
:1000B0007808AC000810000008145E284120780879
:1000C000AB0008100F3083160805880083122C0E31
:1000D000F700F030F70577082B04F8007808AB003C
:1000E000AB1B4D28291C8810291888140000081102
:1000F000000008102A0EAB000F30AB052B08AC0037
:1001000034202A080F39AB00AC0034200800283016
:10011000A2000C30A3000130A4000630A500081096
:10012000881008110F308316080588000810881001
:1001300008110F308312A60020200130A1002108F1
:10014000033C031CAB280330AC0034200530A60070
:100150002020A10A9F280230AC0034200530A600E0
:100160002020A1012108033C031CC22822302107C2
:10017000840083130008A600A9012608AA004720CE
:10018000A10AB2288A110A127129260BC828CB2885
:100190004030A700CC28A70101302502A707270877
:1001A0008038A800A9012808AA00472008002408D0
:1001B000073A0319E5280B3A0319EA28063A031906
:1001C000F228023A0319F828FD280130A500A600FC
:1001D000C5200229A9010130AA0047200230A6004B
:1001E000202002290130A5000230A600C5200229E6
:1001F000A9011030AA00472002290130A9002408D3
:10020000AA00472008000B08A1008B1383160317D0
:100210008C170C140000000083120313A11B8B1712
:1002200003170C087F39031957290313A10003177B
:100230000D080313A20003170F080313A3002108DE
:10024000A400D720220803178D00031323080317E7
:100250008F0003130B08A4008B13831603178C174E
:100260000C140000000083120313A41B8B17031748
:100270000C0D0E0D7F39031957290313A100031725
:100280000D080313A20003170F080313A30021088E
:10029000A400D720220803178D0003132308031797
:1002A0008F008D0A03198F0A031303290317031301
:1002B000080003081F398300713083168F000F0870
:1002C00003170908C039890003131F129F12003059
:1002D00003178800831287018801890183130313A0
:1002E00087281030A0000C30A400D7202008A500DB
:1002F0000130A600C520043003178D0000308F00A8
:10030000031303212008A5000230A600C5200A30EF
:1003100003178D0000308F00031303210230A1006A
:10032000FA30A6002020A10B90290130A002A008DD
:10033000031DA2290830A100FA30A6002020A10B3D
:100340009C29A32973291030A0000C30A400D720C9
:100350002008A5000130A600C520113003178D002C
:1003600000308F00031303212008A5000230A600EF
:10037000C520183003178D0000308F0003130321B0
:100380000230A100FA30A6002020A10BC2290130C2
:10039000A002A008031DD4290830A100FA30A6004D
:0E03A0002020A10BCE29D529A52971296300A3
:04400E00A42CFF3FA0
:00000001FF
;PIC16F887
;CRC=0B3F  CREATED="25-Mar-20 23:21"
